:020000040000FA
:06000000B1EF37F0120021
:0600080004EF10F01200ED
:060018000CEF10F01200D5
:06200000B1EF37F0120001
:022006001200C6
:0620080097EF29F0120021
:02200E001004BC
:022010001004BA
:022012000000CC
:0120140000CB
:0120150000CA
:06201800F6EF2AF01200B1
:02201E000600BA
:10202000152000008B040000010000009B6F0000E1
:10203000670400000E000000142000008A04000065
:1020400001000000966F00007F0400000500000002
:102050001220000088040000020000000E20000092
:082060008404000004000000EC
:08206800949E829E82A003D029
:1020700004018A6B03D00401010E8A6F1200948E52
:102080001200D9CFE6FFE1CFD9FFFE0EDB50010BE6
:10209000206EAE0E2010E66E71D8E552E552E7CF05
:1020A000D9FF1200D9CFE6FFE1CFD9FFFE0EDB50FA
:1020B000020A07E0030A04E0010A01E001D002D0AD
:1020C00001D000D0E552E7CFD9FF1200939481945C
:1020D0009390819093928192948293869484550EEA
:1020E000A76EAA0EA76E0E01FF91090EC96F0A0E08
:1020F000CA6F550EA76EAA0EA76EFF81A1D88A845B
:1021000065D8938681869494829494928292400EAC
:10211000E66E9BD8E552A10EE66E97D8E552C00E4A
:10212000E66E93D8E552E66890D8E552A20EE66EC8
:102130008CD8E5522F0EE66E88D8E552F80EE66E82
:1021400084D8E552E66A81D8E552270EE66E7DD83E
:10215000E552810EE66E79D8E552160EE66E75D818
:10216000E552AC0EE66E71D8E552E66A6ED8E552DD
:102170009484828484D80401076B1200D9CFE6FFCF
:10218000E1CFD9FF9494829494928292FE0EDBCF99
:10219000E6FF5BD8E5529482829294848284E55271
:1021A000E7CFD9FF1200D9CFE6FFE1CFD9FF949452
:1021B000829494828292FE0EDBCFE6FF46D8E552EF
:1021C00094848284E552E7CFD9FF1200D9CFE6FF8D
:1021D000E1CFD9FF020EE12693968196DE6ADD6A91
:1021E000DECF20F0DDCF21F0D890215004E6640E40
:1021F000205C000E215805E2DF2A010E01E3DB2AF4
:10220000EFD793868186DE6ADD6ADECF20F0DDCFF0
:1022100021F0D890215004E6640E205C000E215875
:1022200005E2DF2A010E01E3DB2AEFD7020EE15CB3
:1022300002E2E16AE552E16EE552E7CFD9FF120012
:10224000400E736E200E726E1200D9CFE6FFE1CF02
:10225000D9FFE6527550DF6EA49E729EFE0EDB50D3
:10226000756E72AE03D0FF0E05D002D0A4AEFED7BD
:10227000000E00D0E552E552E7CFD9FF1200D9CFCA
:10228000E6FFE1CFD9FF040EE126DE6ADD6ADECF8C
:1022900020F0DDCF21F0D890215004E6080E205C1C
:1022A000000E21584BE2DECF20F0DDCF21F00F0EE3
:1022B0002016000E2116B00E2010E66E5FDFE552EC
:1022C000100EE66E5BDFE552E66A58DFE552020E5D
:1022D000DB6A030EDB6A020EDBCF20F0030EDBCFDE
:1022E00021F0D890215004E6800E205C000E215889
:1022F00020E2E66A58DFE552DECF20F0DDCF21F0A4
:10230000070ED89020362136E806FBE1000E202685
:10231000050E2122020EDB502024E96E030EDB5055
:102320002120EA6EEF6A020EDB2A030E01E3DB2AAC
:10233000D2D7DF2A010E01E3DB2AA9D70401010E5F
:10234000076F040EE15C02E2E16AE552E16EE552DC
:10235000E7CFD9FF1200D9CFE6FFE1CFD9FF040EB6
:10236000E1260401065101E15ED0075101E15BD095
:10237000DE6ADD6ADECF20F0DDCF21F0D89021507B
:1023800004E6080E205C000E21584BE2DECF20F060
:10239000DDCF21F00F0E2016000E2116B00E2010FA
:1023A000E66EECDEE552100EE66EE8DEE552E66A19
:1023B000E5DEE552020EDB6A030EDB6A020EDBCFBE
:1023C00020F0030EDBCF21F0D890215004E6800EE0
:1023D000205C000E215820E2DECF20F0DDCF21F07E
:1023E000070ED89020362136E806FBE1000E2026A5
:1023F000050E2122020EDB502024E96E030EDB5075
:102400002120EA6EEF50E66ECEDEE552020EDB2AA8
:10241000030E01E3DB2AD2D7DF2A010E01E3DB2A18
:10242000A9D70401076B040EE15C02E2E16AE55200
:10243000E16EE552E7CFD9FF1200D9CFE6FFE1CF39
:10244000D9FFE652FE0EDB50DF6EFC0EDBCFE6FF5F
:10245000FE0EDB50E552E724DF5C19E2080EE66E63
:102460003E0EE66E370EE66E000EE66EFB0EDBCF1E
:10247000E6FF010EE66EFD0EDBCFE6FFDFCFE6FFE7
:102480000BD8206E080EE15E2050DF2ADED7E55221
:10249000E552E7CFD9FF1200D9CFE6FFE1CFD9FF50
:1024A000160EE126DF6A0401010E076FFC0EDBCF7A
:1024B000E6FFFE0EDB50E552E724FF0F206E216A97
:1024C000213404E220508008000E215402E2000E64
:1024D000DF80FB0EDBCFE6FFFD0EDB50E552E7248D
:1024E000400801E2DF82FD0EDB40E840E8401F0BC0
:1024F000E76E010EE7CFDBFFFB0EDBCFE6FFFD0E45
:10250000DB50E552E724FF0FE840E840E8401F0BAE
:10251000206E070E205C0DE2FB0EDBCFE6FFFD0E0A
:10252000DB50E552E724FF0FE840E840E8401F0B8E
:1025300001D0070EE76E020EE7CFDBFFFD0EDB508A
:10254000070BE76E030EE7CFDBFFFB0EDBCFE6FFEB
:10255000FD0EDB50E552E724070BE76E040EE7CFD4
:10256000DBFFFE0EDB50E76E050EE7CFDBFFFC0E58
:10257000DBCFE6FFFE0EDB50E552E724F36E050EDF
:10258000DBCFF4FFF350F45C01E33CD3050EDBCF6B
:10259000E6FFFE0EDB50E552E75CE76E090EE7CF83
:1025A000DBFF070EDB6A080EDB6A070EDBCF20F0CD
:1025B000080EDBCF21F0D890215004E6080E205CF5
:1025C000000E21586DE2010EDB50E76E070EDBCFE7
:1025D00022F0080EDBCF23F0E7502226000E232244
:1025E000D890235004E6080E225C000E235858E2CF
:1025F000090EDB50296E2A6AF70EDB502B6E2C6A0F
:1026000000012B502902F3CF27F0F4CF28F02A0243
:10261000F35028262C502902F3502826070EDB50B1
:102620002724246E080EDB502820256E266A25BE3E
:102630002668D950F80FE96EFF0EDA20EA6EEE50E8
:102640002424F36EEE502520F46EEE502620F86E12
:10265000F4CFF7FFF3CFF6FF0800F550E66ED95040
:102660000C0F206EDACF21F0010EDB50E76E070E63
:10267000DBCF22F0080EDBCF23F0E7502226000E3E
:10268000232220502224E96E21502320EA6EE552B5
:10269000E750EF6E070EDB2A080E01E3DB2A85D731
:1026A000030EDB50E76E030EE7CFDBFF010EDB50BE
:1026B000E66ED950070FE96EDACFEAFFE552E75030
:1026C000EE6EED6A070EDBCF20F0080EDBCF21F0B7
:1026D000020EDB50226E236A23502118E8AE02D08E
:1026E000213404D02050225C2150235801E2B7D17C
:1026F000070EDBCF20F0080EDBCF21F0010EDB5000
:10270000226E236A2250201802E12350211850E142
:10271000030EDBCFE6FF080EE552D880E754226EA9
:10272000D9500C0F206EDACF21F0070EDB50202499
:10273000E96E080EDB502120EA6EEF5022C0E7FF61
:10274000E75204E0E8427F0BE706FCE1E76E150E76
:10275000E7CFDBFF010EF36E030EDB5004E0D890F1
:10276000F336E806FCE1F350FF0FE76E0A0EE7CF01
:10277000DBFF150EDBCFE7FF0A0EDB50E716150E69
:10278000E7CFDBFFD9500C0F206EDACF21F0070E18
:10279000DB502024E96E080EDB502120EA6E030E88
:1027A000DB50070B04E0EF46EF90E806FCE1FAD0BF
:1027B000070EDBCF20F0080EDBCF21F0020EDB503E
:1027C000226E236A2250201802E1235021185CE176
:1027D000D9500C0F206EDACF21F0070EDB502024E9
:1027E000E96E080EDB502120EA6E030EDB50070B6A
:1027F00004E0EF46EF90E806FCE10A0EDB1C226ED7
:10280000D9500C0F206EDACF21F0070EDB502024B8
:10281000E96E080EDB502120EA6E2250EF16D950E7
:102820000C0F206EDACF21F0070EDB502024E96E6A
:10283000080EDB502120EA6E150EDB50EF12040E5D
:10284000DB5002E1080E02D0040EDB50206E010EB8
:10285000205204E0E846FE0B2006FCE1FF0FE76E85
:102860000A0EE7CFDBFFD9500C0F206EDACF21F034
:10287000070EDB502024E96E080EDB502120EA6EA3
:102880000A0EDB50EF168ED0070EDBCF20F0080EBD
:10289000DBCF21F0010EDB50226E236A235021187A
:1028A000E8AE02D0213404D02050225C21502358BD
:1028B00001E378D0070EDBCF24F0080EDBCF25F044
:1028C000020EDB50000125AE02D0D89003D0245C6C
:1028D000000E255867E2150EDB50E76E140EE7CFA9
:1028E000DBFF030EDBCFE6FF080EE552D880E7548E
:1028F000226ED9500C0F206EDACF21F0070EDB507C
:102900002024E96E080EDB502120EA6EEF5022C031
:10291000E7FFE75204E0E8427F0BE706FCE1E76EE1
:10292000150EE7CFDBFFDBCFE7FF0A0EDB50E71624
:10293000150EE7CFDBFFD9500C0F206EDACF21F058
:10294000070EDB502024E96E080EDB502120EA6ED2
:10295000030EDB50070B04E0EF46EF90E806FCE1C6
:102960000A0EDB1C226ED9500C0F206EDACF21F03C
:10297000070EDB502024E96E080EDB502120EA6EA2
:102980002250EF16D9500C0F206EDACF21F0070E2F
:10299000DB502024E96E080EDB502120EA6E140E75
:1029A000DB50EF12020EDB50F36E010EDB50F35CD6
:1029B00050E1D9500C0F206EDACF21F0070EDB501A
:1029C0002024E96E080EDB502120EA6E030EDB5056
:1029D000070B04E0EF46EF90E806FCE1010EF36E12
:1029E000030EDB5004E0D890F336E806FCE1F35028
:1029F000FF0FE81CE76E0A0EE7CFDBFF010EF36E58
:102A0000040EDB5004E0D890F336E806FCE1F35006
:102A1000E81CFF0FE76E0B0EE7CFDBFFDBCFE6FF17
:102A20000A0EDB50E552E718E81CE76E0A0EE7CF06
:102A3000DBFFD9500C0F206EDACF21F0070EDB50F0
:102A40002024E96E080EDB502120EA6E0A0EDB50CE
:102A5000EF16070EDB2A080E01E3DB2A33D6010E40
:102A6000DB50E76E060EE7CFDBFFDBCF20F0020E78
:102A7000DB50D880205401E2C2D0010EDB50F36E4F
:102A8000060EDB50F35C10E1010EF36E030EDB501B
:102A900004E0D890F336E806FCE1F350FF0FE76E50
:102AA0000A0EE7CFDBFF30D0060EDBCF20F0010EA1
:102AB000DB50D88020540CE2020EDB50F36E060E81
:102AC000DBCFF4FFF350F45C03E20A0EDB6A1CD0A8
:102AD000020EDB50F36E060EDB50F35C15E1040EC4
:102AE000DB5002E1080E02D0040EDB50206E010E16
:102AF000205204E0E846FE0B2006FCE1FF0FE81C34
:102B0000E76E0A0EE7CFDBFF020EDB50F36E010E1D
:102B1000DB50F35C28E1010EF36E030EDB5004E0A2
:102B2000D890F336E806FCE1F350FF0FE76E0A0E8B
:102B3000E7CFDBFF010EF36E040EDB5004E0D8900C
:102B4000F336E806FCE1F350FF0FE76E0B0EE7CF1C
:102B5000DBFFDBCFE6FF0A0EDB50E552E718E76E3E
:102B60000A0EE7CFDBFF060EDB50800DF3CF20F01F
:102B7000F4CF21F0000E2026050E2122050EDB5099
:102B80000F012024E96E000E2120EA6E0A0EDB50B0
:102B9000EF160A0EDB1C226ED9500C0F206EDACF16
:102BA00021F0060EDB502024E96E000E2120EA6E93
:102BB0002250EF16D9500C0F236EDACF24F0060EF8
:102BC000DB502324E96E000E2420EA6EEFCF22F0C2
:102BD000060EDB50800DF3CF20F0F4CF21F0000E75
:102BE0002026050E2122050EDB502024E96E000E62
:102BF0002120EA6E2250EF12060EDB2A36D7050E90
:102C0000DB2AB5D4DF50206E160EE15C03E200D063
:102C1000E16AE552E16E2050E552E7CFD9FF12009C
:102C2000D9CFE6FFE1CFD9FF0401066B050EE66EB2
:102C3000940E236E370E246E000E256EFE0EDB50B2
:102C40001C0DF3CF26F0F4CF27F0050E2702F3CFAB
:102C500027F02602F3CF26F0F4502726286A27BE55
:102C6000286823502624206E24502720216E2550CA
:102C70002820226E20C0E6FF21C0E6FF22C0E6FF2A
:102C8000280EE66E1C0EE66EE66A0F0EE66E4CEC43
:102C900012F0296E080EE15E2950050EE66E940EC4
:102CA000236E370E246E000E256EFD0EDB501C0DBC
:102CB000F3CF26F0F4CF27F0050E2702F3CF27F04D
:102CC0002602F3CF26F0F4502726286A27BE28686C
:102CD00023502624206E24502720216E25502820A2
:102CE000226E20C0E6FF21C0E6FF22C0E6FF280ECC
:102CF000E66E1C0EE66EE66A2D0EE66E4CEC12F0E9
:102D0000296E080EE15E29500401010E066FE5529E
:102D1000E7CFD9FF1200D9CFE6FFE1CFD9FF0401F9
:102D2000066BFE0EDB5016E0030EE66E460EE66EF8
:102D3000370EE66E000EE66E140EE66E1A0EE66EA6
:102D4000E66A4B0EE66E4CEC12F0206E080EE15E69
:102D500020500DD0140EE66E1A0EE66EE66A4B0E8B
:102D6000E66E1DEC12F0E552E552E552E552040123
:102D7000010E066FE552E7CFD9FF12000401066B82
:102D8000020EE66E510EE66E3F0EE66E000EE66E29
:102D9000100EE66E270EE66EE66A580EE66E4CECF6
:102DA00012F0206E080EE15E20500401010E066F45
:102DB0001200D9CFE6FFE1CFD9FFE652FE0EDBCFFE
:102DC00020F0000EE76E2018E8AE02D0203403D0C9
:102DD000E750D880205404E2FE0EDB50DF6E05D0B1
:102DE000FE0EDB50FF0DF350DF6E0401066B020E8A
:102DF000E66E510EE66E3F0EE66E000EE66E100EAB
:102E0000E66E270EE66EE66A580EE66E4CEC12F0A1
:102E1000206E080EE15E2050010EE66E9F0EE66EFB
:102E20003F0EE66E000EE66E030EE66E010EE66ED7
:102E3000080EE66EFE0EDB50E8246B0FE66E4CECDF
:102E400012F0206E080EE15E2050FE0EDBCF20F067
:102E5000000EE76E2018E8AE02D0203403D0E75011
:102E6000D880205417E2010EE66EC30EE66E300ED7
:102E7000E66E000EE66E080EE66E050EE66E110EAC
:102E8000E66E580EE66E4CEC12F0206E080EE15E17
:102E9000205032D0FE0EDBCF20F0203417E3010E9D
:102EA000E66ECD0EE66E300EE66E000EE66E080E95
:102EB000E66E050EE66E110EE66E580EE66E4CECF2
:102EC00012F0206E080EE15E205016D0010EE66E64
:102ED0008C0EE66E300EE66E000EE66E080EE66EA6
:102EE000050EE66E110EE66E580EE66E4CEC12F014
:102EF000206E080EE15E2050010EE66E8C0E236EF1
:102F0000300E246E000E256E300EDF24E00F050D0E
:102F1000F3CF26F0276A286A23502624206E2450F7
:102F20002720216E25502820226E20C0E6FF21C0D8
:102F3000E6FF22C0E6FF080EE66E050EE66E110EF5
:102F4000E66E5E0EE66E4CEC12F0296E080EE15E47
:102F500029500401010E066FE552E552E7CFD9FF73
:102F60001200D9CFE6FFE1CFD9FFE552E7CFD9FF75
:102F70001200D9CFE6FFE1CFD9FF0401066B030EA3
:102F8000E66E6C0EE66E360EE66E000EE66E130E04
:102F9000E66E2C0EE66E2D0EE66EE66A4CEC12F036
:102FA000206E080EE15E2050030EE66E570E236E73
:102FB0003D0E246E000E256EFE0EDB040C0DF3CFCD
:102FC00026F0F4CF27F0030E2702F3CF27F02602D6
:102FD000F3CF26F0F4502726286A27BE286823500E
:102FE0002624206E24502720216E25502820226E72
:102FF00020C0E6FF21C0E6FF22C0E6FF110EE66E0C
:103000000C0EE66E2B0EE66E2E0EE66E4CEC12F0FB
:10301000296E080EE15E29500401010E066FE5528B
:10302000E7CFD9FF1200D9CFE6FFE1CFD9FF030EDA
:10303000E1260401066BF70EDBCFE6FFF80EDBCFCF
:10304000E6FFF90EDBCFE6FFFA0EDBCFE6FFFB0E65
:10305000DBCFE6FFFC0EDBCFE6FFFD0EDBCFE6FFAE
:10306000FE0EDBCFE6FF4CEC12F0206E080EE15EA8
:1030700020500401010E066F030EE15C02E2E16ADA
:0C308000E552E16EE552E7CFD9FF1200E7
:04308C000000000040
:103090000000009E0000000E000E0028FE28FE2802
:1030A0004854FE5424462610C8C46C92AA44A0007A
:1030B0000A060000003844820000824438001054A0
:1030C00038541010107C101000A060000010101078
:1030D0001010006060000040201008047CA2928A5A
:1030E0007C0084FE800084C2A2928C42828A966216
:1030F000302824FE204E8A8A8A7278949292600246
:10310000E2120A066C9292926C0C9292523C006C03
:103110006C000000AC6C00000010284482282828B5
:10312000282882442810000402A2120C6492F28221
:103130007CFC222222FCFE9292926C7C828282444F
:10314000FE82824438FE92929282FE121202027C29
:103150008282A264FE101010FE0082FE8200408077
:10316000827E02FE10284482FE80808080FE040859
:1031700004FEFE081020FE7C8282827CFE12121267
:103180000C7C82A242BCFE1232528C8C92929262D1
:103190000202FE02027E8080807E3E4080403EFE33
:1031A000403040FEC6281028C60608F00806C2A215
:1031B000928A860000FE828204081020408282FEED
:1031C0000000080402040880808080800002040857
:1031D0000040A8A8A8F0FE90888870708888884071
:1031E00070888890FE70A8A8A83010FC1202041005
:1031F00028A8A878FE100808F00088FA800040800F
:10320000887A0000FE2050880082FE8000F8083096
:1032100008F0F8100808F07088888870F8282828C6
:103220001010282830F8F81008081090A8A8A84016
:10323000087E88804078808040F838408040387828
:1032400080608078885020508818A0A0A07888C816
:10325000A8988800106C82000000FE000000826CBC
:1032600010002010102010F0888488F0000000006A
:10327000000000000000000000000000000000004E
:10328000000000000000000000000000000000003E
:10329000000000000000000000000000000000002E
:1032A000000000000000000000000000000000001E
:1032B000000000000000000000000000000000000E
:1032C0000006000000000000800700000000000071
:1032D000F007000000000000FC010000000000807A
:1032E0007F000000000000F00F000000000000FC64
:1032F000030000000000807F000000000000E03FAD
:10330000000000000000FC7B0000000000007FF8CF
:103310000000000000E01FF80100000000F8039C1E
:103320000300000000F8001C07000000001C000C57
:103330000E000000001C000C1C000000000E000E1F
:10334000380000000006000E7000000000060006B5
:10335000E000000000060006C001000000060007B3
:1033600080030000000600030007000000060003C1
:103370000006000000068003000400000006800133
:10338000000000000006C001000000000006700000
:103390000000000000067C0000000000000E3F005E
:1033A000FC01000000FC0F00FE03000000F8030019
:1033B000FF07000000F000006306000000000000AE
:1033C000630600000000000063060000000000002B
:1033D000630600000000000063060000000000001B
:1033E0003E060000000000001E000000000000007B
:1033F00000000000000000000000000000000000CD
:1034000000000000000000008007000000000080B5
:10341000FF070000000000FF7F0000000000007FA9
:10342000000000000000000000000000000000009C
:10343000000000000000000000000000000000008C
:10344000C003000000000000E307000000000000CF
:10345000630600000000000063060000000000009A
:10346000630600000000000063060000000000008A
:10347000E307000000000000FE070000000000005D
:103480007E040000000000000004000000000000B6
:10349000000000000000000000000000000000002C
:1034A0000000000000000000000700000000000015
:1034B000F007000000000060FE0000000000006057
:1034C0000E000000000000000000000000000000EE
:1034D00000000000000000000000000000000000EC
:1034E00006060000000000001E07000000000000AB
:1034F000FC03000000000000F001000000000000DC
:10350000F001000000000000B8030000000000000F
:103510001E070000000000000704000000000080FB
:1035200003000000000000C001000000000000F0E7
:103530000000000000000038000000000000001C37
:10354000FC03000000000000FE0700000000000077
:10355000FF070000000000006306000000000000FC
:103560006306000000000000630600000000000089
:103570006306000000000000630600000000000079
:103580007C060000000000003C000000000000007D
:10359000000000000000000000000000000000002B
:1035A0000000000000000000F80300000000000020
:1035B000FC070000000000000C06000000000000F6
:1035C0000C060000000000000C06000000000000D7
:1035D0000C060000000000008C0700000000000046
:1035E000FF070000000000F07F000000000000F076
:1035F00000000000000000000000000000000000CB
:1036000000000000000000000000000000000000BA
:1036100000000000000000000000000000000000AA
:10362000000000000000000000000000000000009A
:10363000000000000000000000000000000000008A
:10364000000000000000000000000000000000007A
:10365000000000000000000000000000000000006A
:10366000000000000000000000000000FF7F00FFDD
:103670007F00000000000000E07F00E07F003000DD
:1036800000300000300000300000700000E07F00DB
:10369000C07F00000000000000E0FF07F0FF0730DF
:1036A0006000306000306000306000707000E03F0B
:1036B00000C01F00000000000000F01F00F03F00ED
:1036C000007000006000006000006000006000F01A
:1036D0003F00F03F0000000000000030000030001C
:1036E00000FE3F00FE7F0030600030600030600070
:1036F00000FF0180FF03C00107E0000E60000C60C6
:10370000000C60000C60000C60000CFFFF0FFFFF5E
:103710000F000000000000FFFF0FFFFF0F03060C6B
:1037200003060C03060C03060C03060C03060C032D
:10373000060C060F06060F07FCF903F8F00100005F
:1037400000000000000080FF0100010000020000F6
:10375000040000040000020000010080FF010000DE
:103760000000FC0000000100000100000100FC005E
:1037700000000000040000040000FC010004000040
:10378000040000000000FC010024010024010024CA
:103790000100040100F8FF1F0080FFFFFF01E0FFB0
:1037A000FFFF07F0FFFFFF0FF8FFFFFF1FFC070001
:1037B000E03FFC0000003F7E0000007E3E00000075
:1037C0007C1F000000F80F000000F00F000000F068
:1037D0000F000000F00F000000F00F000000F00FDD
:1037E000000000F00F000000F01F000000F83E0095
:1037F00000007C7E0000007EFC0000003FFC070013
:10380000E03FF8FFFFFF1FF0FFFFFF0FE0FFFFFFAC
:103810000780FFFFFF0100F8FF1F0000000000000D
:103820000000000000000000000000000000000098
:1038300000000000E001000000F001000000F000C6
:10384000000000F8000000007C000000007C000088
:1038500000007E000000003E00000000FFFFFFFFB0
:10386000FFFFFFFFFFFFFFFFFFFFFFFFFFFFFFFF68
:10387000FFFFFFFFFF00000000000000000000004D
:103880000000000000000000000000000000000038
:103890000000000000000000000000000000000028
:1038A0000000000000000000000000000000000018
:1038B000000000000000000000C0FF3C0000F0FF1E
:1038C0003C0000FCFF3C0000FEFF1E00807FF01E5D
:1038D00000C01FF01E00C007F00F00E003F00F0053
:1038E000F001F00F00F801F00F00F800F00F007C7D
:1038F00000F00F003E00F00F003E00F00F001F0030
:10390000F01F800F00F01EC00F00F07EF00700F0E7
:10391000FEFF0300F0FCFF0100F0F8FF0000F0F0F4
:103920007F0000F0C01F0000000000000000000049
:103930000000000000000000000000000000000087
:1039400000003C0000003C1C003C00381E003C0015
:10395000781E003C00781E003C00780E003C007889
:103960000F003C00F00F003C00F00F003C00F00F97
:10397000003C00F00F003C00F00F003C00F00F0096
:103980003C00F00F003C00F01F003C00F81E007EE1
:1039900000783E00FF007C7EC0FF017FFCFFFFFF40
:1039A0003FFCFFE7FF1FF8FFC3FF1FF0FF81FF078A
:1039B000807F00FE01000000000000000000000009
:1039C000000000000000801F000000E01F00000059
:1039D000F01F000000FC1F000000FE1E0000003F62
:1039E0001E0000C01F1E0000E00F1E0000F8031E96
:1039F0000000FC011E00007E001E00803F001E0033
:103A0000C01F001E00F007001E00F803001E00FE8D
:103A100000001E007F00001E00FFFFFFFFFFFFFFF2
:103A2000FFFFFFFFFFFFFFFFFFFFFFFFFFFFFFFFA6
:103A3000FFFF0000001E000000001E000000001E2E
:103A4000000000001E000000001E000000001E001C
:103A50000000000000000000003C00FC0F003CFFE4
:103A6000FF0F0078FFFF0F0078FFFF0F0078FFFFC8
:103A70000F00780F000F00F00F000F00F00F000F85
:103A800000F00F000F00F00F000F00F00F000F000C
:103A9000F00F000F00F00F000F00F00F001E00F8F5
:103AA0000F001E00780F003E007C0F003E007E0FCE
:103AB00000FC803F0F00FCFF3F0F00F8FF1F0F00CE
:103AC000F0FF0F0F00E0FF03000080FF0000000088
:103AD00000000000000000000000000000FCFF3FAC
:103AE0000080FFFFFF01E0FFFFFF07F0FFFFFF0F78
:103AF000F8FFFFFF1FFC030FC03F7E000F007E3E5C
:103B00000007007C1E800700781F800700F80F80E8
:103B10000700F00F800700F00F800700F00F80070C
:103B200000F00F800700F00F800700F00F800F00FB
:103B3000F80F800F00780F000F007C1E001F007E22
:103B40001E007F803F1E00FEFF3F1C00FCFF1F3C4D
:103B500000F8FF0F0000F0FF030000C07F0000002E
:103B6000000000000000000000000000000F000046
:103B700000000F000000000F000000000F00000018
:103B8000000F000000E00F000000F80F000000FE32
:103B90000F000080FF0F0000F0FF0F0000FC1F0F60
:103BA0000000FF070F00C0FF010F00F07F000F00B3
:103BB000FC1F000F00FF07000FC0FF00000FF03FC9
:103BC00000000FFE0F00008FFF030000EFFF00005A
:103BD00000FF3F000000FF07000000FF01000000A1
:103BE0007E000000001C000000000000000000003B
:103BF00000000000803F00FE01E0FF81FF07F0FFB2
:103C0000C3FF0FF8FFE7FF1FFCFFF7FF3FFCC0FFFC
:103C1000033F3E00FF007C1E007E007C1E007E00F5
:103C2000781F003C00F80F003C00F00F003C00F053
:103C30000F003C00F00F003C00F00F003C00F00FC4
:103C4000003C00F00F003C00F01F003C00F81E009C
:103C50007E00781E007E007C3E00FF007CFCC0FFE2
:103C6000033FFCFFFFFF3FF8FFE7FF1FF0FFC3FF2D
:103C70000FE0FF81FF07807F00FE010000000000D1
:103C800000FE030000C0FF0F0000F0FF1F003CF823
:103C9000FF3F003CFCFF7F0078FC01FE00787E00C7
:103CA000F800783E00F800F01E00F001F01F00F070
:103CB00001F00F00E001F00F00E001F00F00E00163
:103CC000F00F00E001F00F00E001F00F00E001F064
:103CD0001F00E001F81E00E001783E00E0007C7E5D
:103CE00000F0007EFC03F0C03FF8FFFFFF1FF0FF75
:103CF000FFFF0FE0FFFFFF0780FFFFFF0100FCFF5A
:103D00003F000000000000000000000000003C0038
:103D10000000003C000000003C000000003C0000EF
:103D200000003C000000003C000000003C000000DF
:103D3000003C000000003C000000003C00000000CF
:103D40003C000000003C000000003C0000000000BF
:103D50000000000000000000000000000000000063
:103D6000060000020000030000FFFF01FFFF01004A
:103D7000000000000000000000000000000006F04D
:103D80000106F801028C0103860103870103830108
:103D9000838101C38101C780017E80013C800100D5
:103DA000000000000006C000828100838101838141
:103DB00001838101838101838101C7C300FEFF006C
:103DC0007C7C00001C00001E00801F00C01900E069
:103DD00018003818001C1800071800FFFF01FFFF2B
:103DE00001001800001800000000000000F8C100E9
:103DF000FF810183810183810183810183810183AB
:103E0000810103C30003FF00003E00000000F83FF3
:103E100000FC7F00C6E000C38001C38001C38001B5
:103E2000C38001C3800183C10086FF00003F000002
:103E30000000000000000000000000000000000082
:103E40000000000000FF00000080FF010000C0FF34
:103E5000030000E0FF070000F0810F0000F8001FE2
:103E6000000078001E00007C003E00003C003C008A
:103E7000003C003C00003C003C00003C003C0000DA
:103E80003C003C00003C003C00003C003C00003C8E
:103E9000003C00003C003C00003C003C00003C00BA
:103EA0003C00007C003E000078001E0000F8001F6F
:103EB0000000F0810F0000E0FF07000080FF00001D
:103EC0000080FF000000E0FF070000F0810F00000D
:103ED000F8001F000078001E00007C003E00003C3F
:103EE000003C00003C003C00003C003C00003C006A
:103EF0003C00003C003C00003C003C00003C003C1E
:103F000000003C003C00003C003C00003C003C0049
:103F1000003C003C00007C003E000078001E0000D9
:103F2000F8001F0000F0810F0000E0FF070000C054
:103F3000FF03000080FF01000000FF000000000000
:103F40000000000000000000000000000000000071
:103F500000000000787F4049404940494036400019
:103F600040784024402440784000407C404040401D
:103F70004040400040784024472440784000407C46
:103F800040084010407C4000403840444044404499
:103F90004000407C40544054404440007800003889
:103FA000D9CFE6FFE1CFD9FFE652D650DF6ED66A11
:103FB0000401152BDF5000D0E552E552E7CFD9FFC1
:103FC0001200D9CFE6FFE1CFD9FFE65219C41BF4A6
:103FD0001AC41CF414C417F41FC420F4040E040102
:103FE000205D04E0205102E0165102E1000E01D0F4
:103FF000010EDF6EDF501BE01AC420F0216A205052
:10400000E66E6A0EE66E040EE66EDDEC33F0E55207
:10401000E552E55204011951E66E6C0EE66E040E8F
:10402000E66EDDEC33F0E552E552E55219D01FC4DF
:10403000E6FF6A0EE66E040EE66EDDEC33F0E55246
:10404000E552E55214C4E6FF6C0EE66E040EE66E11
:10405000DDEC33F0E552E552E55204013F0E6A6FA4
:10406000070EE66E670EE66E040EE66E8BEC33F01E
:10407000E552E552E5520401196B1A6B146B156B8E
:10408000166B1F6BDF5000D0E552E552E7CFD9FF2A
:104090001200D9CFE6FFE1CFD9FFE6523F0EF36E13
:1040A000FE0EDBCFF4FFF350F45C02E3000E01D010
:1040B000010EDF6EDF5004012B5D13E12B6B142B1F
:1040C000010ED89019371A37E806FBE10C0E0401EF
:1040D000145D02E0000E01D0010E166FF1AA1981E5
:1040E00009D02B5105E1DF5003E0010E2B6F02D008
:1040F000040E1F6FE552E552E7CFD9FF1200D9CF6A
:10410000E6FFE1CFD9FFE652040E0401145D03E09F
:10411000050E145D0DE1350EF36EFE0EDBCFF4FFE0
:10412000F350F45C02E3000E01D0010EDF6E0CD000
:104130001E0EF36EFE0EDBCFF4FFF350F45C02E3D1
:10414000000E01D0010EDF6EDF502B5D19E12B6BED
:10415000142B010ED89019371A37E806FBE1150E1B
:104160000401145D02E0000E01D0010E166FF1BAD9
:104170001981050E145D03E1010E19152C6F09D08C
:104180002B5105E1DF5003E0010E2B6F02D0040E2E
:104190001F6FE552E552E7CFD9FF1200D9CFE6FFF6
:1041A000E1CFD9FFF1AA14D0D89004011A33193302
:1041B000142BFE0EDB502A0801E21A8F0C0E145D40
:1041C00005E00F0E145D02E0000E01D0010E166F27
:1041D000E552E7CFD9FF1200D9CFE6FFE1CFD9FFF3
:1041E000040119691A69E552E7CFD9FF1200D9CF46
:1041F000E6FFE1CFD9FFE652D3DEDF6E04011551B1
:10420000030A10E0010A0BE0030A06E01FC4E9FFFD
:10421000EA6AE9AE77D075D0F294F28A88D0DFCF1F
:104220002DF485D0230E2D5D10E32D5132080DE3C2
:10423000230EDF5C0AE3DF50320807E3010E1F6F35
:104240002B6B0401350E706F5BD04B0E2D5D1FE3A1
:104250002D515F081CE3230EDF5C19E3DF505F087C
:1042600016E3010E1F6F196F1A6B3F0EDF5C02E33E
:10427000000E01D0010E2B6F2B5105E1010E146FC2
:10428000030E196F1A6B0401580E706F39D06E0E41
:104290002D5D18E32D51206E216A213404E2205057
:1042A0008C08000E21540EE3230EDF5C0BE3DF507D
:1042B000320808E3020E1F6F010E2B6F0401360E49
:1042C000706F1ED0640E2D5D16E32D51206E216A95
:1042D000213404E220508208000E21540CE3160E13
:1042E000DF5C09E3DF50210806E3030E1F6F0401C2
:1042F000530E706F05D004013F0E706F04011F6BE9
:1043000016D0EA68D890E936EA36210EE926040E7E
:10431000EA22EECF20F0EFCF21F0DFCFE6FF04D08E
:1043200021C0FAFF2050F96EFBDFE55200D000D02B
:10433000E552E552E7CFD9FF12000401196B1A6B61
:10434000146B156B166B010E186F1F6BD80E216F57
:10435000410E226F920E236F400E246FFE0E256FCA
:10436000400E266F9C0E276F410E286FD80E296FC6
:10437000410E2A6F100EE66E040EE66E010EE66E1A
:1043800026EC2DF0E552E552E5521200D9CFE6FFBA
:10439000E1CFD9FF0B0EE126490EDF6EDE52520E41
:1043A000DD6E660EF36E020EF3CFDBFF720EF36E60
:1043B000030EF3CFDBFF650EF36E040EF3CFDBFFCE
:1043C000650EF36E050EF3CFDBFF7A0EF36E060E6D
:1043D000F3CFDBFF650EF36E070EF3CFDBFF350E79
:1043E000F36E080EF3CFDBFF300EF36E090EF3CF42
:1043F000DBFF300EF36E0A0EF3CFDBFF20C411F4A7
:104400001DC412F4100EE66E040EE66E010EE66E8A
:1044100070EC2CF0E552E552E55204018A510CE1B2
:10442000020EE66E150EE66E140EE66EDDEC35F04D
:10443000E552E552E55208D0130EE66E6F0EE66EB9
:10444000B1EC17F0E552E552030E0401205D02E1E4
:10445000530E06D0020E205D02E1360E01D0350E5D
:10446000E76E080EE7CFDBFF1DC4E6FFD950090F4A
:10447000E66E000EDA20E66EDDEC33F0E552E55232
:10448000E5520B0EE66ED9CFE6FFDACFE6FF8BECF6
:1044900033F0E552E552E5520B0EE15C02E2E16ACF
:1044A000E552E16EE552E7CFD9FF1200D9CFE6FF22
:1044B000E1CFD9FFE652020E0401205D09E11B5154
:1044C000DF6E1CC420F0216A20501D6F1E6B1DD0B2
:1044D0001C51080B02E1000E01D0010E2C6F3F0EA3
:1044E0001B15DF6E1C51100B01E0DF8C1BC420F08C
:1044F0001CC421F0060ED89021322032E804FBE1E2
:104500001F0E201404011D6F1E6B115100080FE2D5
:1045100018510DE12051115D09E11251206E216AFF
:104520001D51201802E11E51211801E07BD0DF50FF
:104530000C0A69E00D0A61E0030A5FE0010A5DE030
:10454000070A5BE0010A59E0030A57E0010A55E057
:104550000F0A53E0010A51E03C0A4CE0190A4AE014
:104560001C0A45E03D0A43E03B0A41E0070A3FE000
:104570002B0A39E0410A37E00D0A35E04D0A2FE0F9
:10458000410A2DE00F0A2BE0750A25E0010A20E020
:10459000310A15E0400A13E0080A11E0490A05E073
:1045A000480A03E0080A01E03CD00401FE0E596FFE
:1045B000020E0401185D02E1030E186F33D00401EE
:1045C000020E596F0401180502E1020E186F2AD07D
:1045D00004015B6927D00401010E5B6F23D0040145
:1045E000FE0E5D6F1FD00401020E5D6F1BD009EC43
:1045F00026F018D02FEC26F015D0DFCFE6FFE1EC47
:1046000026F0E5520FD0FCEC27F0000904E104018C
:10461000010E5C6F06D0FCEC27F0020802E10401F9
:104620005C6900D0E552E552E7CFD9FF1200D9CF3F
:10463000E6FFE1CFD9FFE6520C0E0401175D09E158
:10464000040E0F0B05E0D8901C331B33E806FBE18A
:1046500003D0D8901C331B337F0E04011B15DF6E73
:104660001BC420F01CC421F0070ED8902132203248
:10467000E804FBE1205004011D6F1E6B115100087E
:104680000FE218510DE12051115D09E11251206E28
:10469000216A1D51201802E11E51211801E089D024
:1046A000DF502F0A01E17ED0010A74E03B0A63E08B
:1046B0000F0A5EE0030A59E0010A57E03F0A51E0A1
:1046C000140A4FE0520A4DE0470A47E0120A45E05B
:1046D000560A43E0720A3DE0010A38E0030A2DE081
:1046E000660A2BE0360A29E0510A1DE0660A1BE043
:1046F000360A19E0430A11E0010A0FE0030A0DE04F
:10470000010A0BE0070A09E0010A07E0030A05E0D5
:10471000010A03E00F0A01E04CD0DF28E66EE1EC6D
:1047200026F0E55246D00401FE0E596F020E040138
:10473000185D02E1030E186F3CD00401020E596FA0
:104740000401180502E1020E186F33D004015B6901
:1047500030D00401010E5B6F2CD00401FE0E5D6FA2
:1047600028D00401020E5D6F24D009EC26F021D080
:104770002FEC26F01ED0FCEC27F0000904E1040128
:10478000010E5C6F06D0FCEC27F0020802E1040188
:104790005C690FD0FCEC27F0000903E10401010E75
:1047A0005C6F07D0FCEC27F0020802E104015C69B1
:1047B00000D0E552E552E7CFD9FF120004012051A5
:1047C000030A07E0010A03E0030A01E004D06EDEF9
:1047D00002D02DDF00D0030E0401185D08E1FCECCF
:1047E00027F0000904E0D2DD0401186B06D0FCECD0
:0C47F00027F0010802E00401186B120021
:0447FC000401596BF0
:104800005A6B5D6B5E6B5C6B5B6B666B5F6B120018
:10481000D9CFE6FFE1CFD9FF040EE12604016451B0
:1048200006E0665104E05F5102E060510EE0E66A86
:10483000E66A66C4E6FF5FC4E6FFE66A87EC31F02D
:10484000206E050EE15E205060D0800E6515206E52
:1048500065417F0B2010E76E010EE7CFDBFFDB50D9
:10486000D8806555DF6E010EDB506425E76E030EC0
:10487000E7CFDBFFDF506425E76E020EE7CFDBFFFB
:10488000030EDBCF20F0400EE76E2018E8AE02D01A
:10489000203403D0E750D880205405E2400EF36E58
:1048A000030EF3CFDBFF020EDBCF20F0400EE76EEE
:1048B0002018E8AE02D0203403D0E750D88020542E
:1048C00005E2400EF36E020EF3CFDBFF030EDBCFEB
:1048D00020F0203402E3030EDB6A020EDBCF20F06F
:1048E000203402E3020EDB6A030EDBCFE6FF020E8A
:1048F000DBCFE6FF62C4E6FF5FC4E6FFE66A87EC53
:1049000031F0206E050EE15E2050040EE15C02E203
:10491000E16AE552E16EE552E7CFD9FF1200D9CF47
:10492000E6FFE1CFD9FF030EE1260401605115E057
:1049300004018A510BE1FE0EDBCFE6FFE66AE66A70
:10494000BCEC35F0E552E552E55205D060C4E6FF17
:104950008BEC16F0E5524FD014D01DEC34F0020869
:1049600010E104018A510CE1FE0EDBCFE6FF170EC9
:10497000E66E160EE66EBCEC35F0E552E552E552F9
:104980003AD0DF6ADE520A0EDD6E010EDBCF20F078
:1049900004016451D88020540CE3DF2A0A0E206EF3
:1049A000010EDBCFE7FF2050E726010EE7CFDBFF4C
:1049B000ECD7010EDB50645D0A0FE76E020EE7CF05
:1049C000DBFF04018A510EE1FE0EDBCFE6FF020E93
:1049D000DBCFE6FFDFCFE6FFBCEC35F0E552E5527A
:1049E000E55209D0020EDBCFE6FFDFCFE6FF10EC89
:1049F00016F0E552E552030EE15C02E2E16AE5528F
:104A0000E16EE552E7CFD9FF1200D9CFE6FFE1CF43
:104A1000D9FF070EE126560EF36E030EF3CFDBFF30
:104A20002B0EF36E040EF3CFDBFF300EF36E050E8C
:104A3000F3CFDBFF020E0401E76E5F19E8AE02D090
:104A4000E73402D0E7505F5D01E26FD060510BE0C8
:104A500004018A5105E060C4E6FF8BEC16F0E552D4
:104A60000401606B596B59515A27596B060E5AC491
:104A7000DBFF5A350AE3FF0E5A03060EF3CFDBFFC6
:104A80002D0EF36E040EF3CFDBFF060EDBCF20F00E
:104A9000090EE76E2018E8AE02D0203403D0E750AC
:104AA000D880205404E3060EDB50300F01D02A0ECC
:104AB000E76E050EE7CFDBFF020EE76E5A19E8AE90
:104AC00002D0E73402D0E7505A5D07E3400E645D40
:104AD00001E2642B020E5A5FEFD7FE0EE76E5A1901
:104AE000E8AE02D05A3503D0E750D8805A5507E3D4
:104AF0006451000801E26407020E5A27EED76451A0
:104B0000400801E2646B84DE010EE66E08DFE552C8
:104B1000030EE66ED950030FE66E000EDA20E66E45
:104B20008BEC33F0E552E552E552070EE15C02E210
:104B3000E16AE552E16EE552E7CFD9FF1200020EBD
:104B40000401E76E5F19E8AE02D0E73402D0E75007
:104B50005F5D02E3605101E05BD05D515E275D6BFC
:104B6000020EE76E5E19E8AE02D0E73402D0E750DD
:104B70005E5D0EE3090EE76E6519E8AE02D0E7341C
:104B800002D0E750655D01E2652B020E5E5FE8D75B
:104B9000FE0EE76E5E19E8AE02D05E3503D0E75038
:104BA000D8805E550FE3F70EE76E6519E8AE02D0C8
:104BB000653503D0E750D880655501E26507020EE0
:104BC0005E27E6D725DE04018A511DE10401653523
:104BD0000CE2020EE66E65C4E6FF120EE66EDDEC38
:104BE00035F0E552E552E5520DD0020EE66EFF0EAD
:104BF0006503F350E66E100EE66EDDEC35F0E5521F
:104C0000E552E55205D065C4E6FFD9EC16F0E55251
:104C10001200020E04015F5D01E020D0010E606F02
:104C2000E66AE66AE66A5FC4E6FFE66A87EC31F0A8
:104C3000206E050EE15E205004018A510AE1010E4A
:104C4000E66EE66AE66ABCEC35F0E552E552E552FE
:104C500005D060C4E6FF8BEC16F0E5521200020EA0
:104C600004015F5D01E002D0596BCFDE1200D9CFA5
:104C7000E6FFE1CFD9FF050EE126430EDF6EDE52DF
:104C80002B0EDD6E300EF36E020EF3CFDBFF040150
:104C9000E76E5F19E8AE02D0E73402D0E7505F5DFF
:104CA00001E285D05B3504E2030E5BC4DBFF08D074
:104CB000FF0E5B03030EF3CFDBFFDE522D0EDD6E26
:104CC000030EDBCF20F0090EE76E2018E8AE02D00D
:104CD000203403D0E750D880205404E3030EDB5087
:104CE000300F01D02A0EE76E020EE7CFDBFF5B51DB
:104CF00066275B6B060E616F1DEC34F0000903E064
:104D00000401090E616F04016151D880665503E208
:104D10006151665FF8D7665102E161C466F41DEC2B
:104D200034F000091FE004016651040802E3040E98
:104D300008D06651070803E3040E665D02D0030E37
:104D4000665D626F6651040802E3660501D0040ED9
:104D5000E76E040EE7CFDBFFDBCFE6FF11EC35F0AB
:104D6000E55202D066C462F453DDE66AD8DDE5524E
:104D700004018A510CE1020EE66E66C4E6FF0C0ED9
:104D8000E66EDDEC35F0E552E552E55205D066C43D
:104D9000E6FFB9EC17F0E552030EE66ED9CFE6FF59
:104DA000DACFE6FF8BEC33F0E552E552E552050E23
:104DB000E15C02E2E16AE552E16EE552E7CFD9FF3C
:104DC0001200D9CFE6FFE1CFD9FF1DEC34F0000986
:104DD00005E1FE0EDB50060801E207D0FE0EDB50B7
:104DE0000401D88066555B6F42DFE552E7CFD9FFFB
:104DF0001200D9CFE6FFE1CFD9FF020EE126500E17
:104E0000DF6EDE52300EDD6EFF0E04015C5D34E1BC
:104E10005F5132E0E66AE66AE66A5FC4E6FFE66A88
:104E200087EC31F0206E050EE15E205004018A51BE
:104E30000BE1010EE66E120EE66EE66EBCEC35F08E
:104E4000E552E552E55208D0E66A52EC10F0E55220
:104E5000E66A41EC10F0E55204015F6B646B5A6B3B
:104E6000E66AE66AE66AE66AE66A87EC31F0206E90
:104E7000050EE15E205071D0000EE76E5C19E8AEC1
:104E800002D05C3503D0E750D8805C553EE25F51DC
:104E90003CE1010E5F6F04018A510AE1010EE66EEA
:104EA000E66AE66ABCEC35F0E552E552E55220D000
:104EB000010EE66E41EC10F0E552010EE66E52EC8A
:104EC00010F0E5523FEC11F0080EE66EF80EE66EBB
:104ED0005C0EE66E000EE66E400EE66E800EE66E2E
:104EE000E66AE66A13EC18F0206E080EE15E2050C8
:104EF000E66AE66AE66A5FC4E6FFE66A87EC31F0D6
:104F0000206E050EE15E205028D0000EE76E5C1981
:104F1000E8AE02D05C3503D0E750D8805C551DE286
:104F20005F051BE1020E5F6F04018A5102E03FEC56
:104F300011F0630EE66E040EE66E030EE66E26ECCE
:104F40002DF0E552E552E5520401596B5B6B5D6B48
:104F5000606B5BDD8CDEA194A08404015C6B300E81
:104F60005F25E76E010EE7CFDBFF020EE66ED9CFBD
:104F7000E6FFDACFE6FF8BEC33F0E552E552E5527F
:104F8000020EE15C02E2E16AE552E16EE552E7CF32
:104F9000D9FF1200D9CFE6FFE1CFD9FF020EE126FB
:104FA000460EDF6EDE52760EDD6E020E04015F5D90
:104FB00001E018D0030E636F630EE66E040EE66E1A
:104FC000030EE66E70EC2CF0E552E552E552020E4F
:104FD000E66ED9CFE6FFDACFE6FF8BEC33F0E55291
:104FE000E552E552020EE15C02E2E16AE552E16E51
:104FF000E552E7CFD9FF120004015F5100D0120043
:10500000D9CFE6FFE1CFD9FF080EE126490EF36EB6
:10501000040EF3CFDBFF4E0EF36E050EF3CFDBFF76
:10502000490EF36E060EF3CFDBFF540EF36E070E40
:10503000F3CFDBFFEEDA0401066B0401006B040121
:105040004A6B4B6B4E6B4F6B4C6B4D6B546B556B94
:10505000140E586F566B34EC10F004018A5112E1B3
:10506000E66AE66AE66ADDEC35F0E552E552E552BD
:10507000010EE66EE66AE66ABCEC35F0E552E552F2
:10508000E55202D066EC10F09DEC21F059EC2BF0CB
:105090003BEC31F0E76E030EE7CFDBFFE66AE66A32
:1050A000E66AE66AE66A87EC31F0206E050EE15E9C
:1050B0002050FEEC23F0F28EF28C030EDB500EE05B
:1050C00004018A510BE1030EE66E010EE66E0E0E30
:1050D000E66EDDEC35F0E552E552E5520401496B30
:1050E000040EE66ED950040FE66E000EDA20E66E6E
:1050F0008BEC33F0E552E552E552960E0401506F09
:10510000516B000ED8805055000E515501E2F9D771
:105110000401010E5C6FF090F086F092F088F0943C
:10512000F08AB4EC34F00401595102E005EC25F0AA
:10513000010E0401E76E5D19E8AE02D05D3503D0C3
:10514000E750D8805D550AE3FF0EE76E5D19E8AEC3
:1051500002D0E73402D0E7505D5D02E29FEC25F01B
:1051600004015B5102E037EC26F004015C5132E0AF
:1051700004015251531109E004015C3506E30401B6
:10518000526B536BCAEC27F015D0000E0401E76E8A
:105190005C19E8AE02D05C3503D0E750D8805C558E
:1051A00009E2FCEC27F0000905E10401F40E506F60
:1051B000010E516F000E0401E76E5C19E8AE02D0DB
:1051C0005C3503D0E750D8805C5502E2B4EC34F093
:1051D000F9EC26F0040157514CE0576BDEEC23F05C
:1051E0000401595112E00401560E7F6F310E040183
:1051F000E76E5819E8AE02D0583503D0E750D88092
:10520000585502E3040E582706D00401760E7F6F2E
:105210000401140E586F54C4E6FF800EE66E040EAF
:10522000E66EDDEC33F0E552E552E55258C4E6FF98
:10523000820EE66E040EE66EDDEC33F0E552E552CA
:10524000E55204015C5105E0640E0401546F556B96
:1052500005D00401900E526F010E536F050EE66EDD
:105260007F0EE66E040EE66E8BEC33F0E552E552EF
:10527000E5520401010E521901E1535104E1526B50
:10528000536BCAEC27F01DEC34F0206E020E205C4C
:1052900008E30401565105E143EC35F004012D0EFD
:1052A000566F030EDBCFE6FF0CD8E5523CD7080E55
:1052B000E15C02E2E16AE552E16EE552E7CFD9FF37
:1052C0001200D9CFE6FFE1CFD9FF8250400B01E0B9
:1052D000010E0401495D03E14C6B4D6B03D04C2B77
:1052E000000E4D23FF0E4C1901E14D511CE182507F
:1052F000400B01E0010E496FFE0EDB5013E104018B
:105300008A5110E1020EE66E8250400B02E0010E5F
:1053100001D0000EE66E130EE66EDDEC35F0E552C0
:10532000E552E552A188E552E7CFD9FF1200DACF66
:10533000E4FFE2CFDAFFE9CFE4FFEACFE4FFF6CF04
:10534000E4FFF7CFE4FFF5CFE4FFF3CFE4FFF4CFC2
:10535000E4FFFACFE4FF00EE2DF00B0EE80403E3C8
:10536000EECFE4FFFBD700EE20F00D0EE80403E3E0
:10537000EECFE4FFFBD7E652A350080B45E0A45064
:10538000080B42E004018A5103E171EC35F002D0D0
:10539000ABEC11F004014A514B1103E04A07000E37
:1053A0004B5B5451551103E05407000E555B4E51B1
:1053B0004F110FE04E07000E4F5B4E514F1109E1A8
:1053C000F150080B06E0FCEC27F0020802E10401B2
:1053D0005C6904015051511109E05007000E515B06
:1053E0005051511103E10401010E5C6F0401010EE3
:1053F000D8805255000E535503E25207000E535BFE
:10540000565101E05607A496F050080B1BE0F050EF
:10541000010B18E004015851545D386E000EE76E20
:105420003818E8AE02D0383403D0E750D88038546A
:1054300002E3F7EC20F0F0908050010B02E0F19ACB
:1054400001D0F18AF250200B13E0F250040B10E06F
:10545000E1EC1FF00401576F5451551102E1140E95
:10546000586F575103E0410E546F556BF29AF19A01
:10547000F050100B51E0F050020B4EE004014A5185
:105480004B1143E1F1A629D0F150100B01E0010EC0
:10549000386E8050040B01E0010E385C03E104011A
:1054A0005D0702D004015D2B010EE76E5D19E8AEC9
:1054B00002D05D3503D0E750D8805D550AE3FF0E7A
:1054C000E76E5D19E8AE02D0E73402D0E7505D5DCB
:1054D00003E204014E6B4F6B10D0F150100B01E052
:1054E000010E386E8050040B01E0010E385C03E1C0
:1054F0000401590702D00401592B020E04014A6F1E
:105500004B6B900E526F010E536F8050020B02E0F6
:10551000F19801D0F188F092F050200B35E0F05076
:10552000040B32E0F150080B24E00401FC0E4E5D48
:10553000000E4F591EE24E514F1101E114D0FCEC08
:1055400027F0020809E10401010E5B6F04012C0E33
:10555000526F010E536F07D0FCEC27F0000903E1F6
:105560000401010E5C6F030E04014E6F4F6BF19648
:105570000AD0F150080B07E104014E514F1103E12D
:105580004E694F6BF186F094A050040B0BE0A150D4
:10559000040B08E0FCEC27F0020803E104015C695D
:1055A000A094A194E55200EE2CF00D0EE80403E364
:1055B000E5CFEDFFFBD700EE37F00B0EE80403E379
:1055C000E5CFEDFFFBD7E5CFFAFFE5CFF4FFE5CF61
:1055D000F3FFE5CFF5FFE5CFF7FFE5CFF6FFE5CF2A
:1055E000EAFFE5CFE9FFE5CFDAFF1100D8CFE4FF0E
:1055F000E0CFE4FFE46EDACFE4FFE2CFDAFFE65279
:10560000E552E5CFDAFFE550E5CFE0FFE5CFD8FF83
:105610001000D08EF26AF168F06A9D6AA06AA36AEF
:105620009E6A100EA116A46A9F6AA26AA56AA19832
:10563000806A9268C26A0F0148691F0E496F816AC9
:105640009368F19E826A9468550EA76EAA0EA76EA3
:105650000E01FF91E76B010EE86F020EE96F550E28
:10566000A76EAA0EA76EFF81280EC66E630EC86EC7
:105670007668A586A386F184F29AC70ED56E80500F
:10568000020B02E0F19801D0F188F08EF098F196CB
:10569000F182F09AF19AF08CF0963F0EC716C66A26
:1056A000C56AC686C68A790E856EA194A284A09426
:0256B0001200E6
:0E56B200D9CFE6FFE1CFD9FF070EE126000EAB
:1056C000F66E780EF76E0800020EF5CFDBFFDB50AA
:1056D00004E0020EDB50FF0803E10401386B03D045
:1056E0000401010E386F38512E6F2F6B0A0ED890BF
:1056F0002E372F37E806FBE1000E04012E27740E2B
:105700002F232EC4F6FF2FC4F7FF0800020EF5CF9B
:10571000DBFFDB5028E1000E2E25206E040E2F212A
:10572000216E2006000E215A226A236A20C0E6FF5D
:1057300021C0E6FF22C0E6FF23C0E6FF2EC424F00E
:105740002FC425F0266A276A24C0E6FF25C0E6FF9D
:1057500026C0E6FF27C0E6FFFCEC35F0286E080EF9
:10576000E15E2850A694030EDB6A040EF36E030E6E
:10577000DBCFF4FFF350F45C0FE2030EEA6ADB3494
:10578000FE0BEA36E96E300EE926040EEA22EE6AD6
:10579000ED6A030EDB2AE9D7050EDB6A060EDB6A2B
:1057A000050EDBCF20F0060EDBCF21F0000E205CD3
:1057B000040E21586AE2050EDB5004012E250F016C
:1057C000F66E060EDB5004012F210F01F76E080064
:1057D000020EF5CFDBFFF550FF0857E0020EDBCFDE
:1057E00020F0000EE76E2018E8AE02D0203403D07F
:1057F000E750D880205438E2020EDBCF21F0040EAF
:10580000E76E2118E8AE02D0E73402D0E750215C01
:105810002BE2050EDB5004012E250001206E060E42
:10582000DB5004012F210001216E020EDBCFE9FFC6
:10583000EA6AE9BEEA68D890E936EA36300EE92627
:10584000040EEA2220C0EEFF21C0EDFF020EDBCFE6
:10585000E9FFEA6AE9BEEA68840EE926040EEA2254
:10586000040EEFCFDBFF04D0040EF36EF3CFDBFFAB
:10587000DB50206E216AD950050FE96EDACFEAFFBE
:105880002050EE262150ED228BD7050EDBCF20F0E5
:10589000060EDBCF21F0000E205C040E21580AE238
:1058A000050EDB5004012E25306F060EDB502F2134
:1058B000316F0CD00401385105E0000E306F740ECA
:1058C000316F04D0000E306F780E316F070EE15C3F
:1058D00002E2E16AE552E16EE552E7CFD9FF12003C
:1058E000D9CFE6FFE1CFD9FF070EE126030E30C482
:1058F000DBFF040E31C4DBFF050EDB6A060EDB6A3C
:10590000FE0EDBCFE9FFEA6AE9BEEA68840EE9260B
:10591000040EEA22010EEFCFDBFFDB407F0BE76EC8
:10592000020EE7CFDBFF2068030E216E226A236A96
:10593000D950030FE96EDACFEAFFEE502016EE5091
:105940002116EE502216EE502316010EDBCF24F066
:10595000256A266A276A24502026255021222650AF
:10596000222227502322000E205C040E2158000E14
:105970002258000E23580DE3E0D8030E31C0DBFFA0
:10598000040E32C0DBFF050E33C0DBFF060E34C051
:10599000DBFFDF6A020EDB50DF5C36E2D950FC0F22
:1059A000E96EFF0EDA20EA6EEECFF3FFEDCFF4FFE3
:1059B000020EEE26000EEF22F3CFE9FFF4CFEAFF4E
:1059C000EECFE6FFEFCFE6FFD950030FE96EDACF57
:1059D000EAFFEECFE6FFEECFE6FFEECFE6FFEFCF3A
:1059E000E6FF78EC36F0206E060EE15E2050D950CE
:1059F000030FE96EDACFEAFF020EEE26000EEE226A
:105A0000EE22EE22DF2AC6D7A694FE0EDBCFE9FFF8
:105A1000EA6AE9BEEA68D890E936EA36300EE92645
:105A2000040EEA2230C4EEFF31C4EDFF030EDBCFDB
:105A300030F4040EDBCF31F4070EE15C02E2E16AE0
:105A4000E552E16EE552E7CFD9FF1200D9CFE6FF6C
:105A5000E1CFD9FF040EE126FE0EDBCFE9FFEA6AB3
:105A6000E9BEEA68840EE926040EEA22010EEFCFB1
:105A7000DBFFFE0EDBCFE9FFEA6AE9BEEA68D890F9
:105A8000E936EA36300EE926040EEA22020EEECF9F
:105A9000DBFF030EEDCFDBFFD950020FE96EDACF4B
:105AA000EAFFEE50ED1021E0FC0EDBCFE6FFFD0E2D
:105AB000DBCFE6FF010EDBCFE6FFE66A020EDBCFAF
:105AC00020F0030EDBCF21F0226A236A20C0E6FF1C
:105AD00021C0E6FF22C0E6FF23C0E6FF29EC37F035
:105AE000246E080EE15E24501ED0FC0EDBCFE9FFD1
:105AF000DB2AFD0EDBCFEAFF01E3DB2AFE0EDBCF64
:105B0000EFFF010EDF6E010EDB50DF5C0CE2FC0EDE
:105B1000DBCFE9FFDB2AFD0EDBCFEAFF01E3DB2A67
:105B2000EF6ADF2AF0D7040EE15C02E2E16AE55297
:105B3000E16EE552E7CFD9FF1200D9CFE6FFE1CF02
:105B4000D9FF040EE12604013829010BDF6EDF5076
:105B5000206E216A0A0ED89020362136E806FBE135
:105B6000000E2026740E2122010E20C0DBFF020E43
:105B700021C0DBFF010EDBCFF6FF020EDBCFF7FF0C
:105B80000800F550FF082DE0010EDBCF20F0020EDB
:105B9000DBCF21F0000E2026040E21222006000E6D
:105BA000215A226A236A20C0E6FF21C0E6FF22C0F4
:105BB000E6FF23C0E6FF010EDBCF24F0020EDBCFB1
:105BC00025F0266A276A24C0E6FF25C0E6FF26C026
:105BD000E6FF27C0E6FFFCEC35F0286E080EE15E1C
:105BE0002850010EDBCF30F4020EDBCF31F4010E72
:105BF000F36E030EF3CFDBFFDBCF20F0040EE76E76
:105C00002018E8AE02D0E73402D0E750205C2AE248
:105C1000030EDBCFE9FFEA6AE9BEEA68D890E9360D
:105C2000EA36300EE926040EEA22EE50ED1001E1CC
:105C300016D0390EE66E040EE66E030EDBCFE6FFDD
:105C400005DFE552E552E552390EE66E040EE66ECA
:105C5000030EDBCFE6FF44DEE552E552E552030ECC
:105C6000DB2ACAD7000E04012E25206E040E2F2138
:105C7000216E2006000E215A226A236A20C0E6FF08
:105C800021C0E6FF22C0E6FF23C0E6FF2EC424F0B9
:105C90002FC425F0266A276A24C0E6FF25C0E6FF48
:105CA00026C0E6FF27C0E6FFFCEC35F0286E080EA4
:105CB000E15E2850A694DFCF38F4010EDBCF2EF43E
:105CC000020EDBCF2FF430C420F031C421F0226A61
:105CD000236A20C031F021C032F022C033F023C04B
:105CE00034F0040EE15C03E200D0E16AE552E16EBB
:085CF000E552E7CFD9FF1200D5
:085CF8000000000000000000A4
:105D00000000000000000000000000000000000093
:105D10000000000000000000000000000000000083
:105D20000000000000000000000000000000000073
:105D30000000000000000000000000000000000063
:105D4000000000000000000000000000000600004D
:105D5000000000008007000000000000F0070000C5
:105D600000000000FC010000000000807F00000037
:105D7000000000F00F000000000000FC0300000025
:105D80000000807F000000000000E03F00000000F5
:105D90000000FC7B0000000000007FF80000000015
:105DA00000E01FF80100000000F8039C0300000061
:105DB00000F8001C07000000001C000C0E00000092
:105DC000001C000C1C000000000E000E380000003B
:105DD0000006000E7000000000060006E000000053
:105DE00000060006C0010000000600078003000056
:105DF0000006000300070000000600030006000084
:105E0000000680030004000000068001000000007E
:105E10000006C00100000000000670000000000045
:105E200000067C0000000000000E3F00FC010000A6
:105E300000FC0F00FE03000000F80300FF07000055
:105E400000F0000063060000000000006306000090
:105E50000000000063060000000000006306000070
:105E60000000000063060000000000003E06000085
:105E7000000000001E000000000000000000000004
:105E80000000000000000000000000000000000012
:105E9000000000008007000000000080FF070000F5
:105EA000000000FF7F0000000000007F00000000F5
:105EB00000000000000000000000000000000000E2
:105EC000000000000000000000000000C00300000F
:105ED00000000000E307000000000000630600006F
:105EE00000000000630600000000000063060000E0
:105EF000000000006306000000000000E30700004F
:105F000000000000FE070000000000007E0400000A
:105F1000000000000004000000000000000000007D
:105F20000000000000000000000000000000000071
:105F3000000000000007000000000000F007000063
:105F400000000060FE000000000000600E00000085
:105F50000000000000000000000000000000000041
:105F60000000000000000000000000000606000025
:105F7000000000001E07000000000000FC030000FD
:105F800000000000F001000000000000F00100002F
:105F900000000000B8030000000000001E07000021
:105FA0000000000007040000000000800300000063
:105FB000000000C001000000000000F00000000030
:105FC00000000038000000000000001CFC0300007E
:105FD00000000000FE07000000000000FF070000B6
:105FE00000000000630600000000000063060000DF
:105FF00000000000630600000000000063060000CF
:106000000000000063060000000000007C060000A5
:10601000000000003C000000000000000000000044
:106020000000000000000000000000000000000070
:1060300000000000F803000000000000FC07000062
:10604000000000000C060000000000000C0600002C
:10605000000000000C060000000000000C0600001C
:10606000000000008C07000000000000FF07000097
:10607000000000F07F000000000000F000000000C1
:106080000000000000000000000000000000000010
:106090000000000000000000000000000000000000
:1060A00000000000000000000000000000000000F0
:1060B00000000000000000000000000000000000E0
:1060C00000000000000000000000000000000000D0
:1060D00000000000000000000000000000000000C0
:1060E00000000000000000000000000000000000B0
:1060F0000000000000000000FF7F00FF7F000000A4
:1061000000000000E07F00E07F0030000030000071
:10611000300000300000700000E07F00C07F000011
:106120000000000000E0FF07F0FF07306000306073
:1061300000306000306000707000E03F00C01F0061
:10614000000000000000F01F00F03F0000700000A1
:106150006000006000006000006000F03F00F03F61
:1061600000000000000000300000300000FE3F0092
:10617000FE7F0030600030600030600000FF018072
:10618000FF03C00107E0000E60000C60000C60001F
:106190000C60000C60000CFFFF0FFFFF0F00000001
:1061A000000000FFFF0FFFFF0F03060C03060C03A8
:1061B000060C03060C03060C03060C03060C060F64
:1061C00006060F07FCF903F8F001000000000000CC
:1061D000000080FF01000100000200000400000434
:1061E0000000020000010080FF0100000000FC0030
:1061F00000000100000100000100FC0000000000A0
:10620000040000040000FC01000400000400000081
:106210000000FC010024010024010024010004010D
:10622000D9CFE6FFE1CFD9FFFE0EDB50C96EC6AE77
:1062300003D0FF0E1CD01BD00F0EC614080804E0BC
:106240000F0EC6140B0813E1C7B0FED7C750040BDE
:1062500001E0010E206E1F0EC514201001E0F6D7DC
:10626000C5AC03D0FE0E03D002D0000E00D0E55224
:10627000E7CFD9FF1200D9CFE6FFE1CFD9FFE65231
:10628000C580C5B0FED7400EE66ECADFE5520009F4
:1062900011E1E66AC5DFE55200090CE1E66AC0DFFC
:1062A000E552000907E1E66ABBDFE552000902E1B9
:1062B000000E01D0010EDF6EC584C5B4FED7DF50DD
:1062C00000D0E552E552E7CFD9FF1200D9CFE6FF63
:1062D000E1CFD9FFC580C5B0FED7FE0EDBCFE6FF0C
:1062E0009FDFE552120EE66E9BDFE552FD0EDBCF1F
:1062F000E6FF96DFE552FC0EDBCFE6FF91DFE552CD
:10630000C584C5B4FED7E552E7CFD9FF1200D9CF77
:10631000E6FFE1CFD9FF100EE126490EF36E050E20
:10632000F3CFDBFF320EF36E060EF3CFDBFF430E2F
:10633000F36E070EF3CFDBFF3A0EF36E080EF3CFCA
:10634000DBFF300EF36E090EF3CFDBFF300EF36E82
:106350000A0EF3CFDBFF2C0EF36E0B0EF3CFDBFF39
:10636000300EF36E0C0EF3CFDBFF300EF36E0D0E1E
:10637000F3CFDBFFFE0EDB6AFD0EDB5002E1FC0E0D
:10638000DB6AFC0EDB5005E1FB0EDB6AFA0EDB6A12
:1063900013D0FB0EDB5006E1FA0EDB5003E1FC0EDE
:1063A000DB6A0AD0FB0EDB5002E0FB0EDB06FA0EC6
:1063B000DB5002E0FA0EDB06FB0EDBCFE6FFFA0E47
:1063C000DB50400DF350E552E710E76E010EE7CFCA
:1063D000DBFFFA0EDB40E8403F0B206EFC0EDB38A3
:1063E000F00B2010E76E020EE7CFDBFFFD0EDB5057
:1063F00002E0020EDB8EFE0EDB50E8244009DF6E69
:10640000010EDB50040188150001206E020EDB50E6
:10641000040189150001216E030E20C0DBFF040E6C
:1064200021C0DBFF030EDBCF20F0040EDBCF21F019
:10643000010EDB50201803E1020EDB50211838E07A
:10644000030EDBCF22F0040EDBCF23F004018851D2
:10645000221802E1895123182BE0030EDBCFE6FF5F
:10646000040EDBCFE6FFDFCFE6FF30DFE552E5527B
:10647000E5520E0EDB6A0F0EDB6A0E0EDBCF20F04C
:106480000F0EDBCF21F0226A236AD8902350000A36
:1064900008E6A00E205C0F0E2158000E2258000EB8
:1064A000235806E20E0EDB2A0F0E01E3DB2AE5D7A6
:1064B000010EDBCFE6FF020EDBCFE6FFDFCFE6FF0C
:1064C00005DFE552E552E552010EDBCF88F4020EFE
:1064D000DBCF89F4DBCFE6FFD950090FE66E000E63
:1064E000DA20E66EDDEC33F0E552E552E552010EBE
:1064F000DBCFE6FFD9500C0FE66E000EDA20E66E19
:10650000DDEC33F0E552E552E552090EE66ED95066
:10651000050FE66E000EDA20E66E8BEC33F0E552E6
:10652000E552E552100EE15C02E2E16AE552E16EED
:08653000E552E7CFD9FF12008C
:08653800D9CFE6FFE1CFD9FF46
:10654000E652FC0EDB503D0805E23D0EF36EFC0EFC
:10655000F3CFDBFF090E0EC4E9FF0FC4EAFFEF6EB5
:10656000010E0401EA6A0E25E96E0F51EA22FC0EC3
:10657000DBCFEFFFDF6AFC0EDB50DF5C1AE2DF509F
:10658000E76EFD0EDBCFE9FFFE0EDBCFEAFFE75043
:10659000E926000EEA22EF50E66E020EDF24EA6AD8
:1065A0000E25E96E0F51EA22E552E750EF6EDF2A21
:1065B000E2D7020EDF24EA6A0E25E96E0F51EA22C5
:1065C000EF6A400E0D6F0C170C7D880E0C13E55210
:1065D000E552E7CFD9FF1200D9CFE6FFE1CFD9FFCF
:1065E000E652DF6A040108BF2FD0FC0EDBCF20F09B
:1065F0000951D880205403E2FC0E09C4DBFFDF6A96
:10660000FC0EDB50DF5C19E2DF50EA6A0A25E96E16
:106610000B51EA22EF50E66EDF50E76EFD0EDBCF46
:10662000E9FFFE0EDBCFEAFFE750E926000EEA2283
:10663000E552E750EF6EDF2AE3D7020E096F400EF6
:106640000817087D880E0813DF5000D0E552E55288
:10665000E7CFD9FF1200D9CFE6FFE1CFD9FF050E72
:10666000E1260CC4DFFF010E0DC4DBFF020E0EC4D9
:10667000DBFF030E0FC4DBFF040EDB6A65B6DB80B5
:1066800004010CBFDB82A4B4DB84DB50206E050E5A
:10669000E15C03E200D0E16AE552E16E2050E55290
:1066A000E7CFD9FF1200D9CFE6FFE1CFD9FF020E25
:1066B000E12665B602D0000E22D0DE6ADD6A040152
:1066C0000851800B0EE0DECF20F0DDCF21F0E80E88
:1066D000205C030E215805E2DF2A010E01E3DB2ACC
:1066E000EED7FC0EDBCFE6FFFD0EDBCFE6FFFE0EA6
:1066F000DBCFE6FF71DFE552E552E55200D0206EB8
:10670000020EE15C02E2E16AE552E16E2050E552E0
:10671000E7CFD9FF1200D9CFE6FFE1CFD9FF020EB4
:10672000E1266550080B03E0A450040B01E123D0DF
:10673000DE6ADD6A04010C51800B0EE0DECF20F032
:10674000DDCF21F0E80E205C030E215805E2DF2AA0
:10675000010E01E3DB2AEED70CBF0DD0FC0EDBCF20
:10676000E6FFFD0EDBCFE6FFFE0EDBCFE6FFE4DE4D
:10677000E552E552E552020EE15C02E2E16AE552C1
:10678000E16EE552E7CFD9FF1200D9CFE6FFE1CFA6
:10679000D9FF010EE66ED950FE0FE66EFF0EDA202D
:1067A000E66EB9DFE552E552E552010EF36EF46A8A
:1067B00000D0E552E7CFD9FF1200D9CFE6FFE1CFF5
:1067C000D9FFE652FC0EDB500F0BDF6EDF500908DD
:1067D00002E3300E01D0570EDF24E66E010EE76EA5
:1067E000FD0EDBCFE9FFFE0EDBCFEAFFE750E92627
:1067F000000EEA22E552E750EF6EFC0EDB380F0B7D
:10680000F36EFC0EF3CFDBFFDBCFE6FFDB500908B6
:1068100002E3300E01D0570EE552E724E66EFD0E7E
:10682000DBCFE9FFFE0EDBCFEAFFE552E750EF6E6C
:0A683000E552E552E7CFD9FF120050
:06683A0004018B5100D0A7
:106840001200D9CFE6FFE1CFD9FFFE0EDB50C96EB3
:10685000C6AE03D0FF0E1CD01BD00F0EC614080806
:1068600004E00F0EC6140B0813E1C7B0FED7C750E3
:10687000040B01E0010E206E1F0EC514201001E074
:10688000F6D7C5AC03D0FE0E03D002D0000E00D068
:10689000E552E7CFD9FF12000F0EC614080804E036
:1068A0000F0EC6140B0801E1C586C7A0FED7C9505C
:1068B00000D01200D9CFE6FFE1CFD9FF020EE126CA
:1068C000DE524E0EDD6EC580C5B0FED7010EDBCFA9
:1068D000E6FFB7DFE552000910E1FE0EDBCFE6FF71
:1068E000B0DFE552000909E1FD0EDBCFE6FFA9DFCD
:1068F000E552000902E1000E01D0010EDF6EC584F1
:10690000C5B4FED7DF50206E020EE15C03E200D07A
:10691000E16AE552E16E2050E552E7CFD9FF12005F
:10692000D9CFE6FFE1CFD9FF020EE126DE524F0EAE
:10693000DD6EC580C5B0FED7010EDBCFE6FF81DF7F
:10694000E552AADFDF6EC584C5B4FED7DF50206EE6
:10695000020EE15C03E200D0E16AE552E16E2050F4
:10696000E552E7CFD9FF1200D9CFE6FFE1CFD9FF3B
:10697000050EE126DE52440EDD6E410EF36E020E70
:10698000F3CFDBFF430EF36E030EF3CFDBFF2D0ED1
:10699000F36E040EF3CFDBFFE00EE66EE66A8ADFED
:1069A000E552E552000914E1200EE66E050EE66E92
:1069B00081DFE552E55200090BE1010EE66E090E9A
:1069C000E66E78DFE552E552000902E1000E01D0E3
:1069D000010EDF6EDF5006E02D0EF36E040EF3CFD6
:1069E000DBFF08D0210EF36E040EF3CFDBFF0401B2
:1069F000010E8B6F040EE66ED950010FE66E000E8D
:106A0000DA20E66E8BEC33F0E552E552E552050EE6
:106A1000E15C02E2E16AE552E16EE552E7CFD9FFBF
:106A20001200D9CFE6FFE1CFD9FFE652FE0EDB50D0
:106A3000030A10E0010A0BE0030A06E0010A01E084
:106A40000CD00E0EDF6E0BD00D0EDF6E08D00B0ECD
:106A5000DF6E05D0070EDF6E02D00F0EDF6EDFCFC8
:106A6000E6FF090EE66E26DFE552E5520F0EDF5C0B
:106A700002E1010E01D0020E04018B6FE552E552D6
:106A8000E7CFD9FF1200D9CFE6FFE1CFD9FFE65219
:106A9000FCEC27F0206E020EE76E2018E8AE02D064
:106AA000E73402D0E750205C04E20401010E8B6F52
:106AB00013D036DFDF6EDFAC08D00401020E8B6F1F
:106AC000E66A8FEC24F0E55207D00401030E8B6FC9
:106AD000E66A8FEC24F0E552E552E552E7CFD9FFA4
:026AE0001200A2
:0E6AE200D9CFE6FFE1CFD9FF020EE126040175
:106AF000002B010EDB6A00B1DB2A055111E0020E0A
:106B0000206E010EDBCFE7FF2050E726010EE7CF16
:106B1000DBFFFF0E055D04E0800E005D01E105076F
:106B20000F0E9312070E9412010E001502E0000ED4
:106B300001D0010EE8B0948EE8A0949E010EDB50C7
:106B4000EA6A010FE96E040EEA22EFCFDFFFF00ED2
:106B5000DF109316DF380F0BF8099416F00E81162C
:106B6000780E8216020EE15C02E2E16AE552E16E05
:106B7000E552E7CFD9FF1200D9CFE6FFE1CFD9FF29
:106B8000FD0EDB50F76A7E0FF66E6F0EF7220800DF
:106B9000F5CF01F4FE0EDB50F76A7E0FF66E6F0E36
:106BA000F7220800F5CF02F4FC0EDB5002E00401EE
:106BB000056BE552E7CFD9FF1200D9CFE6FFE1CF51
:106BC000D9FFFD0EDB50F76A7E0FF66E6F0EF722CF
:106BD0000800F5CF03F4FE0EDB50F76A7E0FF66E69
:106BE0006F0EF7220800F5CF04F4FC0EDBCF05F49E
:086BF000E552E7CFD9FF1200C6
:086BF800D9CFE6FFDACFE6FF7A
:106C0000E1CFD9FFE2CFDAFFE652E652E652E65292
:106C1000E652DF6AD950FA0FE96EFF0EDA20EA6E0B
:106C2000010EEECFDBFF020EEECFDBFF030EEECF49
:106C3000DBFF040EEECFDBFFF60EDBCF20F0F70E0E
:106C4000DBCF21F0F80EDBCF22F0F90EDBCF23F003
:106C500048D82050EE5C2150EE582250EE58235078
:106C6000EE5833E2030EDB50F86E020EDB50F76E87
:106C7000010EDB50F66EA684A688F2AE03D0F29E1B
:106C8000010EDF6E550EA76EAA0EA76EA682DF500C
:106C900001E0F28E206A040E216E226A236A21D856
:106CA000EE502026EE502122EE502222EE502322DA
:106CB000010E20C0DBFF020E21C0DBFF030E22C04D
:106CC000DBFF040E23C0DBFFB7D7050EE15C02E259
:106CD000E16AE552E16EE552E5CFDAFFE7CFD9FF91
:106CE0001200D950010FE96E000EDA20EA6E120090
:106CF000D9CFE6FFDACFE6FFE1CFD9FFE2CFDAFF67
:106D0000070EE12402E3E168E652E16EDF6AD95042
:106D1000FA0FE96EFF0EDA20EA6E010EEECFDBFF0E
:106D2000020EEECFDBFF030EEECFDBFF040EEECF45
:106D3000DBFFF80EDBCF33F0F90EDBCF34F0050EBE
:106D400033C0DBFF060E34C0DBFF030EDB50F86EF2
:106D5000020EDB50F76E010EDB50F66E050EDB50B7
:106D6000F56E0D00060EDB50F56E0C00030EDB50C9
:106D7000F86E020EDB50F76E010EDB50F66EA68A3F
:106D8000A684F2AE03D0F29E010EDF6E550EA76E02
:106D9000AA0EA76EA682DF5001E0F28E070EE15C1C
:106DA00002E2E16AE552E16EE552E5CFDAFFE7CFB4
:046DB000D9FF1200F5
:0C6DB4001E0EF66E200EF76E000EF86E3C
:106DC00004010900F5507A6F0900F5507B6F03E16B
:106DD0007A6701D03DD00900F550756F0900F55074
:106DE000766F0900F550776F09000900F550E96EDC
:106DF0000900F550EA6E090009000900F550786FA6
:106E00000900F550796F09000900F6CF7CF4F7CF3F
:106E10007DF4F8CF7EF475C4F6FF76C4F7FF77C42F
:106E2000F8FF0401785302E1795307E00900F550B7
:106E3000EE6E7807F8E27907F9D77CC4F6FF7DC4D7
:106E4000F7FF7EC4F8FF04017A07000E7B5BBFD713
:026E500012002E
:0E6E5200D9CFE6FFDACFE6FFE1CFD9FFE2CFDE
:106E6000DAFFE652E652E652E652D9CFE9FFDACF30
:106E7000EAFFFA0EDBCFEEFFFB0EDBCFEEFFFC0EE0
:106E8000DBCFEEFFFD0EDBCFEEFF020EDB50F86E28
:106E9000010EDB50F76EDF50F66EF80EDBCF20F000
:106EA000DB06F90EDBCF21F001E2DB0620502110DA
:106EB0000DE00900F60EDBCFE9FFDB2AF70EDBCF92
:106EC000EAFF01E3DB2AF5CFEFFFE7D7040EE15C31
:106ED00002E2E16AE552E16EE552E5CFDAFFE7CF83
:046EE000D9FF1200C4
:0C6EE400524320636F64652070726F657C
:106EF0006772616D6D6D65640052656C61792062C9
:106F00006F617264206E6F7420636F6E6E65637460
:036F1000656400B5
:0D6F1300524320636F64652070726F6567E4
:106F200072616D6D6D65640052656C617920626F90
:106F3000617264206E6F7420636F6E6E656374653A
:026F40006400EB
:0E6F4200C00EF36E00EE00F00E0E01D812002D
:106F5000EA6002D0EE6AFCD7F350E9601200EE6AF4
:026F6000FCD75C
:0E6F62001DEE00F02DEE00F0F86A379CDAEC20
:0E6F700036F003EC10F000EC28F0FBD7120016
:026F7E00085EAB
:106F800022425441015A0040100529062131773030
:066F90007F0C37271707F4
:056F96005630303030E0
:056F9B0049523A3030BC
:096FA000303049523D30313233EA
:10740000000000000000000000000000000000007C
:10741000000000000000000000000000000000006C
:10742000000000000000000000000000000000005C
:10743000000000000000000000000000000000004C
:017FF800AADE
:017FF900F790
:017FFA001571
:017FFB00FF86
:017FFC006321
:017FFD00F88B
:017FFE0087FB
:017FFF00F190
:00000001FF
